{
    "contractName": "AdvisorPool",
    "abi": [
        {
            "constant": false,
            "inputs": [
                {
                    "name": "newToken",
                    "type": "address"
                }
            ],
            "name": "setToken",
            "outputs": [],
            "payable": false,
            "stateMutability": "nonpayable",
            "type": "function"
        },
        {
            "constant": false,
            "inputs": [],
            "name": "renounceOwnership",
            "outputs": [],
            "payable": false,
            "stateMutability": "nonpayable",
            "type": "function"
        },
        {
            "constant": true,
            "inputs": [],
            "name": "getFrom",
            "outputs": [
                {
                    "name": "",
                    "type": "address"
                }
            ],
            "payable": false,
            "stateMutability": "view",
            "type": "function"
        },
        {
            "constant": true,
            "inputs": [],
            "name": "owner",
            "outputs": [
                {
                    "name": "",
                    "type": "address"
                }
            ],
            "payable": false,
            "stateMutability": "view",
            "type": "function"
        },
        {
            "constant": true,
            "inputs": [],
            "name": "balance",
            "outputs": [
                {
                    "name": "",
                    "type": "uint256"
                }
            ],
            "payable": false,
            "stateMutability": "view",
            "type": "function"
        },
        {
            "constant": false,
            "inputs": [
                {
                    "name": "_newOwner",
                    "type": "address"
                }
            ],
            "name": "transferOwnership",
            "outputs": [],
            "payable": false,
            "stateMutability": "nonpayable",
            "type": "function"
        },
        {
            "constant": true,
            "inputs": [],
            "name": "token",
            "outputs": [
                {
                    "name": "",
                    "type": "address"
                }
            ],
            "payable": false,
            "stateMutability": "view",
            "type": "function"
        },
        {
            "anonymous": false,
            "inputs": [
                {
                    "indexed": true,
                    "name": "previousOwner",
                    "type": "address"
                }
            ],
            "name": "OwnershipRenounced",
            "type": "event"
        },
        {
            "anonymous": false,
            "inputs": [
                {
                    "indexed": true,
                    "name": "previousOwner",
                    "type": "address"
                },
                {
                    "indexed": true,
                    "name": "newOwner",
                    "type": "address"
                }
            ],
            "name": "OwnershipTransferred",
            "type": "event"
        },
        {
            "constant": false,
            "inputs": [
                {
                    "name": "_beneficiary",
                    "type": "address"
                },
                {
                    "name": "_start",
                    "type": "uint256"
                },
                {
                    "name": "_cliff",
                    "type": "uint256"
                },
                {
                    "name": "_duration",
                    "type": "uint256"
                },
                {
                    "name": "totalTokens",
                    "type": "uint256"
                }
            ],
            "name": "addVestor",
            "outputs": [
                {
                    "name": "",
                    "type": "address"
                }
            ],
            "payable": false,
            "stateMutability": "nonpayable",
            "type": "function"
        },
        {
            "constant": false,
            "inputs": [
                {
                    "name": "_beneficiary",
                    "type": "address"
                },
                {
                    "name": "amount",
                    "type": "uint256"
                }
            ],
            "name": "transfer",
            "outputs": [
                {
                    "name": "",
                    "type": "bool"
                }
            ],
            "payable": false,
            "stateMutability": "nonpayable",
            "type": "function"
        }
    ],
    "bytecode": "0x608060405233600160006101000a81548173ffffffffffffffffffffffffffffffffffffffff021916908373ffffffffffffffffffffffffffffffffffffffff160217905550611c44806100546000396000f300608060405260043610610099576000357c0100000000000000000000000000000000000000000000000000000000900463ffffffff168063144fa6d71461009e57806345bb3d5e146100e1578063715018a61461018c578063798fd178146101a35780638da5cb5b146101fa578063a9059cbb14610251578063b69ef8a8146102b6578063f2fde38b146102e1578063fc0c546a14610324575b600080fd5b3480156100aa57600080fd5b506100df600480360381019080803573ffffffffffffffffffffffffffffffffffffffff16906020019092919050505061037b565b005b3480156100ed57600080fd5b5061014a600480360381019080803573ffffffffffffffffffffffffffffffffffffffff1690602001909291908035906020019092919080359060200190929190803590602001909291908035906020019092919050505061041a565b604051808273ffffffffffffffffffffffffffffffffffffffff1673ffffffffffffffffffffffffffffffffffffffff16815260200191505060405180910390f35b34801561019857600080fd5b506101a1610571565b005b3480156101af57600080fd5b506101b8610676565b604051808273ffffffffffffffffffffffffffffffffffffffff1673ffffffffffffffffffffffffffffffffffffffff16815260200191505060405180910390f35b34801561020657600080fd5b5061020f61067e565b604051808273ffffffffffffffffffffffffffffffffffffffff1673ffffffffffffffffffffffffffffffffffffffff16815260200191505060405180910390f35b34801561025d57600080fd5b5061029c600480360381019080803573ffffffffffffffffffffffffffffffffffffffff169060200190929190803590602001909291905050506106a4565b604051808215151515815260200191505060405180910390f35b3480156102c257600080fd5b506102cb610771565b6040518082815260200191505060405180910390f35b3480156102ed57600080fd5b50610322600480360381019080803573ffffffffffffffffffffffffffffffffffffffff16906020019092919050505061086f565b005b34801561033057600080fd5b506103396108d7565b604051808273ffffffffffffffffffffffffffffffffffffffff1673ffffffffffffffffffffffffffffffffffffffff16815260200191505060405180910390f35b600073ffffffffffffffffffffffffffffffffffffffff166000809054906101000a900473ffffffffffffffffffffffffffffffffffffffff1673ffffffffffffffffffffffffffffffffffffffff161415156103d757600080fd5b806000806101000a81548173ffffffffffffffffffffffffffffffffffffffff021916908373ffffffffffffffffffffffffffffffffffffffff16021790555050565b600080600160009054906101000a900473ffffffffffffffffffffffffffffffffffffffff1673ffffffffffffffffffffffffffffffffffffffff163373ffffffffffffffffffffffffffffffffffffffff1614151561047957600080fd5b600073ffffffffffffffffffffffffffffffffffffffff166000809054906101000a900473ffffffffffffffffffffffffffffffffffffffff1673ffffffffffffffffffffffffffffffffffffffff16141515156104d657600080fd5b8686868660006104e4610b01565b808673ffffffffffffffffffffffffffffffffffffffff1673ffffffffffffffffffffffffffffffffffffffff1681526020018581526020018481526020018381526020018215151515815260200195505050505050604051809103906000f080158015610556573d6000803e3d6000fd5b50905061056381846108fc565b508091505095945050505050565b600160009054906101000a900473ffffffffffffffffffffffffffffffffffffffff1673ffffffffffffffffffffffffffffffffffffffff163373ffffffffffffffffffffffffffffffffffffffff161415156105cd57600080fd5b600160009054906101000a900473ffffffffffffffffffffffffffffffffffffffff1673ffffffffffffffffffffffffffffffffffffffff167ff8df31144d9c2f0f6b59d69b8b98abd5459d07f2742c4df920b25aae33c6482060405160405180910390a26000600160006101000a81548173ffffffffffffffffffffffffffffffffffffffff021916908373ffffffffffffffffffffffffffffffffffffffff160217905550565b600030905090565b600160009054906101000a900473ffffffffffffffffffffffffffffffffffffffff1681565b6000600160009054906101000a900473ffffffffffffffffffffffffffffffffffffffff1673ffffffffffffffffffffffffffffffffffffffff163373ffffffffffffffffffffffffffffffffffffffff1614151561070257600080fd5b600073ffffffffffffffffffffffffffffffffffffffff166000809054906101000a900473ffffffffffffffffffffffffffffffffffffffff1673ffffffffffffffffffffffffffffffffffffffff161415151561075f57600080fd5b61076983836108fc565b905092915050565b60008060009054906101000a900473ffffffffffffffffffffffffffffffffffffffff1673ffffffffffffffffffffffffffffffffffffffff166370a08231306040518263ffffffff167c0100000000000000000000000000000000000000000000000000000000028152600401808273ffffffffffffffffffffffffffffffffffffffff1673ffffffffffffffffffffffffffffffffffffffff168152602001915050602060405180830381600087803b15801561082f57600080fd5b505af1158015610843573d6000803e3d6000fd5b505050506040513d602081101561085957600080fd5b8101908080519060200190929190505050905090565b600160009054906101000a900473ffffffffffffffffffffffffffffffffffffffff1673ffffffffffffffffffffffffffffffffffffffff163373ffffffffffffffffffffffffffffffffffffffff161415156108cb57600080fd5b6108d481610a05565b50565b6000809054906101000a900473ffffffffffffffffffffffffffffffffffffffff1681565b60008060009054906101000a900473ffffffffffffffffffffffffffffffffffffffff1673ffffffffffffffffffffffffffffffffffffffff1663a9059cbb84846040518363ffffffff167c0100000000000000000000000000000000000000000000000000000000028152600401808373ffffffffffffffffffffffffffffffffffffffff1673ffffffffffffffffffffffffffffffffffffffff16815260200182815260200192505050602060405180830381600087803b1580156109c257600080fd5b505af11580156109d6573d6000803e3d6000fd5b505050506040513d60208110156109ec57600080fd5b8101908080519060200190929190505050905092915050565b600073ffffffffffffffffffffffffffffffffffffffff168173ffffffffffffffffffffffffffffffffffffffff1614151515610a4157600080fd5b8073ffffffffffffffffffffffffffffffffffffffff16600160009054906101000a900473ffffffffffffffffffffffffffffffffffffffff1673ffffffffffffffffffffffffffffffffffffffff167f8be0079c531659141344cd1fd0a4f28419497f9722a3daafe3b4186f6b6457e060405160405180910390a380600160006101000a81548173ffffffffffffffffffffffffffffffffffffffff021916908373ffffffffffffffffffffffffffffffffffffffff16021790555050565b60405161110780610b12833901905600608060405234801561001057600080fd5b5060405160a0806111078339810180604052810190808051906020019092919080519060200190929190805190602001909291908051906020019092919080519060200190929190505050336000806101000a81548173ffffffffffffffffffffffffffffffffffffffff021916908373ffffffffffffffffffffffffffffffffffffffff160217905550600073ffffffffffffffffffffffffffffffffffffffff168573ffffffffffffffffffffffffffffffffffffffff16141515156100d757600080fd5b8183111515156100e657600080fd5b84600160006101000a81548173ffffffffffffffffffffffffffffffffffffffff021916908373ffffffffffffffffffffffffffffffffffffffff16021790555080600560006101000a81548160ff02191690831515021790555081600481905550610168838561017f64010000000002610cdf179091906401000000009004565b60028190555083600381905550505050505061019b565b6000818301905082811015151561019257fe5b80905092915050565b610f5d806101aa6000396000f3006080604052600436106100d0576000357c0100000000000000000000000000000000000000000000000000000000900463ffffffff1680630fb5a6b4146100d557806313d033c0146101005780631726cbc81461012b5780631916558714610182578063384711cc146101c557806338af3eed1461021c578063715018a61461027357806374a8f1031461028a578063872a7810146102cd5780638da5cb5b146102fc5780639852595c14610353578063be9a6555146103aa578063f2fde38b146103d5578063fa01dc0614610418575b600080fd5b3480156100e157600080fd5b506100ea610473565b6040518082815260200191505060405180910390f35b34801561010c57600080fd5b50610115610479565b6040518082815260200191505060405180910390f35b34801561013757600080fd5b5061016c600480360381019080803573ffffffffffffffffffffffffffffffffffffffff16906020019092919050505061047f565b6040518082815260200191505060405180910390f35b34801561018e57600080fd5b506101c3600480360381019080803573ffffffffffffffffffffffffffffffffffffffff1690602001909291905050506104e2565b005b3480156101d157600080fd5b50610206600480360381019080803573ffffffffffffffffffffffffffffffffffffffff16906020019092919050505061061b565b6040518082815260200191505060405180910390f35b34801561022857600080fd5b5061023161081f565b604051808273ffffffffffffffffffffffffffffffffffffffff1673ffffffffffffffffffffffffffffffffffffffff16815260200191505060405180910390f35b34801561027f57600080fd5b50610288610845565b005b34801561029657600080fd5b506102cb600480360381019080803573ffffffffffffffffffffffffffffffffffffffff169060200190929190505050610947565b005b3480156102d957600080fd5b506102e2610be9565b604051808215151515815260200191505060405180910390f35b34801561030857600080fd5b50610311610bfc565b604051808273ffffffffffffffffffffffffffffffffffffffff1673ffffffffffffffffffffffffffffffffffffffff16815260200191505060405180910390f35b34801561035f57600080fd5b50610394600480360381019080803573ffffffffffffffffffffffffffffffffffffffff169060200190929190505050610c21565b6040518082815260200191505060405180910390f35b3480156103b657600080fd5b506103bf610c39565b6040518082815260200191505060405180910390f35b3480156103e157600080fd5b50610416600480360381019080803573ffffffffffffffffffffffffffffffffffffffff169060200190929190505050610c3f565b005b34801561042457600080fd5b50610459600480360381019080803573ffffffffffffffffffffffffffffffffffffffff169060200190929190505050610ca6565b604051808215151515815260200191505060405180910390f35b60045481565b60025481565b60006104db600660008473ffffffffffffffffffffffffffffffffffffffff1673ffffffffffffffffffffffffffffffffffffffff168152602001908152602001600020546104cd8461061b565b610cc690919063ffffffff16565b9050919050565b60006104ed8261047f565b90506000811115156104fe57600080fd5b61055081600660008573ffffffffffffffffffffffffffffffffffffffff1673ffffffffffffffffffffffffffffffffffffffff16815260200190815260200160002054610cdf90919063ffffffff16565b600660008473ffffffffffffffffffffffffffffffffffffffff1673ffffffffffffffffffffffffffffffffffffffff168152602001908152602001600020819055506105e0600160009054906101000a900473ffffffffffffffffffffffffffffffffffffffff16828473ffffffffffffffffffffffffffffffffffffffff16610cfb9092919063ffffffff16565b7ffb81f9b30d73d830c3544b34d827c08142579ee75710b490bab0b3995468c565816040518082815260200191505060405180910390a15050565b60008060008373ffffffffffffffffffffffffffffffffffffffff166370a08231306040518263ffffffff167c0100000000000000000000000000000000000000000000000000000000028152600401808273ffffffffffffffffffffffffffffffffffffffff1673ffffffffffffffffffffffffffffffffffffffff168152602001915050602060405180830381600087803b1580156106bb57600080fd5b505af11580156106cf573d6000803e3d6000fd5b505050506040513d60208110156106e557600080fd5b8101908080519060200190929190505050915061074a600660008673ffffffffffffffffffffffffffffffffffffffff1673ffffffffffffffffffffffffffffffffffffffff1681526020019081526020016000205483610cdf90919063ffffffff16565b905060025442101561075f5760009250610818565b610776600454600354610cdf90919063ffffffff16565b421015806107cd5750600760008573ffffffffffffffffffffffffffffffffffffffff1673ffffffffffffffffffffffffffffffffffffffff16815260200190815260200160002060009054906101000a900460ff165b156107da57809250610818565b6108156004546108076107f860035442610cc690919063ffffffff16565b84610de990919063ffffffff16565b610e2190919063ffffffff16565b92505b5050919050565b600160009054906101000a900473ffffffffffffffffffffffffffffffffffffffff1681565b6000809054906101000a900473ffffffffffffffffffffffffffffffffffffffff1673ffffffffffffffffffffffffffffffffffffffff163373ffffffffffffffffffffffffffffffffffffffff161415156108a057600080fd5b6000809054906101000a900473ffffffffffffffffffffffffffffffffffffffff1673ffffffffffffffffffffffffffffffffffffffff167ff8df31144d9c2f0f6b59d69b8b98abd5459d07f2742c4df920b25aae33c6482060405160405180910390a260008060006101000a81548173ffffffffffffffffffffffffffffffffffffffff021916908373ffffffffffffffffffffffffffffffffffffffff160217905550565b60008060008060009054906101000a900473ffffffffffffffffffffffffffffffffffffffff1673ffffffffffffffffffffffffffffffffffffffff163373ffffffffffffffffffffffffffffffffffffffff161415156109a757600080fd5b600560009054906101000a900460ff1615156109c257600080fd5b600760008573ffffffffffffffffffffffffffffffffffffffff1673ffffffffffffffffffffffffffffffffffffffff16815260200190815260200160002060009054906101000a900460ff16151515610a1b57600080fd5b8373ffffffffffffffffffffffffffffffffffffffff166370a08231306040518263ffffffff167c0100000000000000000000000000000000000000000000000000000000028152600401808273ffffffffffffffffffffffffffffffffffffffff1673ffffffffffffffffffffffffffffffffffffffff168152602001915050602060405180830381600087803b158015610ab657600080fd5b505af1158015610aca573d6000803e3d6000fd5b505050506040513d6020811015610ae057600080fd5b81019080805190602001909291905050509250610afc8461047f565b9150610b118284610cc690919063ffffffff16565b90506001600760008673ffffffffffffffffffffffffffffffffffffffff1673ffffffffffffffffffffffffffffffffffffffff16815260200190815260200160002060006101000a81548160ff021916908315150217905550610bb76000809054906101000a900473ffffffffffffffffffffffffffffffffffffffff16828673ffffffffffffffffffffffffffffffffffffffff16610cfb9092919063ffffffff16565b7f44825a4b2df8acb19ce4e1afba9aa850c8b65cdb7942e2078f27d0b0960efee660405160405180910390a150505050565b600560009054906101000a900460ff1681565b6000809054906101000a900473ffffffffffffffffffffffffffffffffffffffff1681565b60066020528060005260406000206000915090505481565b60035481565b6000809054906101000a900473ffffffffffffffffffffffffffffffffffffffff1673ffffffffffffffffffffffffffffffffffffffff163373ffffffffffffffffffffffffffffffffffffffff16141515610c9a57600080fd5b610ca381610e37565b50565b60076020528060005260406000206000915054906101000a900460ff1681565b6000828211151515610cd457fe5b818303905092915050565b60008183019050828110151515610cf257fe5b80905092915050565b8273ffffffffffffffffffffffffffffffffffffffff1663a9059cbb83836040518363ffffffff167c0100000000000000000000000000000000000000000000000000000000028152600401808373ffffffffffffffffffffffffffffffffffffffff1673ffffffffffffffffffffffffffffffffffffffff16815260200182815260200192505050602060405180830381600087803b158015610d9e57600080fd5b505af1158015610db2573d6000803e3d6000fd5b505050506040513d6020811015610dc857600080fd5b81019080805190602001909291905050501515610de457600080fd5b505050565b600080831415610dfc5760009050610e1b565b8183029050818382811515610e0d57fe5b04141515610e1757fe5b8090505b92915050565b60008183811515610e2e57fe5b04905092915050565b600073ffffffffffffffffffffffffffffffffffffffff168173ffffffffffffffffffffffffffffffffffffffff1614151515610e7357600080fd5b8073ffffffffffffffffffffffffffffffffffffffff166000809054906101000a900473ffffffffffffffffffffffffffffffffffffffff1673ffffffffffffffffffffffffffffffffffffffff167f8be0079c531659141344cd1fd0a4f28419497f9722a3daafe3b4186f6b6457e060405160405180910390a3806000806101000a81548173ffffffffffffffffffffffffffffffffffffffff021916908373ffffffffffffffffffffffffffffffffffffffff160217905550505600a165627a7a723058201f198e6a4b3a272120a80b20a0429cd2c51fec8a8e0d53c185aca12b2c61c1f70029a165627a7a72305820a769c954a9f902b73fde0f1a3b78b3cc1e2393d1dd0a068a8dfa1288a357bce70029",
    "source": "pragma solidity ^0.4.21;\n\nimport \"openzeppelin-solidity/contracts/token/ERC20/ERC20Basic.sol\";\nimport \"openzeppelin-solidity/contracts/token/ERC20/TokenVesting.sol\";\nimport \"openzeppelin-solidity/contracts/ownership/Ownable.sol\";\nimport \"./TokenPool.sol\";\n\ncontract AdvisorPool is TokenPool, Ownable {\n\n    function addVestor(\n        address _beneficiary,\n        uint256 _start,\n        uint256 _cliff,\n        uint256 _duration,\n        uint256 totalTokens\n    ) public onlyOwner poolReady returns (TokenVesting) {\n        TokenVesting vesting = new TokenVesting(_beneficiary, _start, _cliff, _duration, false);\n\n        transferTo(vesting, totalTokens);\n\n        return vesting;\n    }\n\n    function transfer(address _beneficiary, uint256 amount) public onlyOwner poolReady returns (bool) {\n        return transferTo(_beneficiary, amount);\n    }\n}\n",
    "sourcePath": "/Users/wade/Documents/cipherGarden/contracts/Benzene/contracts/AdvisorPool.sol",
    "compiler": {
        "name": "solc",
        "version": "0.4.26+commit.4563c3fc.Emscripten.clang"
    },
    "schemaVersion": "3.4.3",
    "updatedAt": "2021-10-29T19:33:07.691Z",
    "devdoc": {
        "methods": {
            "renounceOwnership()": {
                "details": "Allows the current owner to relinquish control of the contract."
            },
            "transferOwnership(address)": {
                "details": "Allows the current owner to transfer control of the contract to a newOwner.",
                "params": {
                    "_newOwner": "The address to transfer ownership to."
                }
            }
        }
    },
    "userdoc": {
        "methods": {
            "renounceOwnership()": {
                "notice": "Renouncing to ownership will leave the contract without an owner. It will not be possible to call the functions with the `onlyOwner` modifier anymore."
            }
        }
    }
}