{
    "contractName": "GamePool",
    "abi": [
        {
            "constant": false,
            "inputs": [
                {
                    "name": "newToken",
                    "type": "address"
                }
            ],
            "name": "setToken",
            "outputs": [],
            "payable": false,
            "stateMutability": "nonpayable",
            "type": "function"
        },
        {
            "constant": true,
            "inputs": [],
            "name": "FILL_LIMIT",
            "outputs": [
                {
                    "name": "",
                    "type": "uint256"
                }
            ],
            "payable": false,
            "stateMutability": "view",
            "type": "function"
        },
        {
            "constant": true,
            "inputs": [],
            "name": "decimals",
            "outputs": [
                {
                    "name": "",
                    "type": "uint8"
                }
            ],
            "payable": false,
            "stateMutability": "view",
            "type": "function"
        },
        {
            "constant": true,
            "inputs": [],
            "name": "limitStart",
            "outputs": [
                {
                    "name": "",
                    "type": "uint256"
                }
            ],
            "payable": false,
            "stateMutability": "view",
            "type": "function"
        },
        {
            "constant": true,
            "inputs": [
                {
                    "name": "",
                    "type": "uint256"
                }
            ],
            "name": "BZNclaimed",
            "outputs": [
                {
                    "name": "",
                    "type": "bool"
                }
            ],
            "payable": false,
            "stateMutability": "view",
            "type": "function"
        },
        {
            "constant": true,
            "inputs": [],
            "name": "limitAmount",
            "outputs": [
                {
                    "name": "",
                    "type": "uint256"
                }
            ],
            "payable": false,
            "stateMutability": "view",
            "type": "function"
        },
        {
            "constant": true,
            "inputs": [],
            "name": "getFrom",
            "outputs": [
                {
                    "name": "",
                    "type": "address"
                }
            ],
            "payable": false,
            "stateMutability": "view",
            "type": "function"
        },
        {
            "constant": true,
            "inputs": [],
            "name": "tokensRedeemed",
            "outputs": [
                {
                    "name": "",
                    "type": "uint256"
                }
            ],
            "payable": false,
            "stateMutability": "view",
            "type": "function"
        },
        {
            "constant": true,
            "inputs": [],
            "name": "owner",
            "outputs": [
                {
                    "name": "",
                    "type": "address"
                }
            ],
            "payable": false,
            "stateMutability": "view",
            "type": "function"
        },
        {
            "constant": true,
            "inputs": [],
            "name": "gameBalance",
            "outputs": [
                {
                    "name": "",
                    "type": "address"
                }
            ],
            "payable": false,
            "stateMutability": "view",
            "type": "function"
        },
        {
            "constant": true,
            "inputs": [],
            "name": "balance",
            "outputs": [
                {
                    "name": "",
                    "type": "uint256"
                }
            ],
            "payable": false,
            "stateMutability": "view",
            "type": "function"
        },
        {
            "constant": true,
            "inputs": [
                {
                    "name": "contractName",
                    "type": "string"
                },
                {
                    "name": "migrationId",
                    "type": "string"
                }
            ],
            "name": "isMigrated",
            "outputs": [
                {
                    "name": "",
                    "type": "bool"
                }
            ],
            "payable": false,
            "stateMutability": "view",
            "type": "function"
        },
        {
            "constant": true,
            "inputs": [],
            "name": "carToken",
            "outputs": [
                {
                    "name": "",
                    "type": "address"
                }
            ],
            "payable": false,
            "stateMutability": "view",
            "type": "function"
        },
        {
            "constant": false,
            "inputs": [
                {
                    "name": "newOwner",
                    "type": "address"
                }
            ],
            "name": "transferOwnership",
            "outputs": [],
            "payable": false,
            "stateMutability": "nonpayable",
            "type": "function"
        },
        {
            "constant": true,
            "inputs": [],
            "name": "token",
            "outputs": [
                {
                    "name": "",
                    "type": "address"
                }
            ],
            "payable": false,
            "stateMutability": "view",
            "type": "function"
        },
        {
            "anonymous": false,
            "inputs": [
                {
                    "indexed": true,
                    "name": "user",
                    "type": "address"
                },
                {
                    "indexed": true,
                    "name": "_tokenId",
                    "type": "uint256"
                },
                {
                    "indexed": false,
                    "name": "amount",
                    "type": "uint256"
                }
            ],
            "name": "Redeem",
            "type": "event"
        },
        {
            "anonymous": false,
            "inputs": [
                {
                    "indexed": true,
                    "name": "previousOwner",
                    "type": "address"
                },
                {
                    "indexed": true,
                    "name": "newOwner",
                    "type": "address"
                }
            ],
            "name": "OwnershipTransferred",
            "type": "event"
        },
        {
            "anonymous": false,
            "inputs": [
                {
                    "indexed": false,
                    "name": "contractName",
                    "type": "string"
                },
                {
                    "indexed": false,
                    "name": "migrationId",
                    "type": "string"
                }
            ],
            "name": "Migrated",
            "type": "event"
        },
        {
            "constant": false,
            "inputs": [],
            "name": "initialize",
            "outputs": [],
            "payable": false,
            "stateMutability": "nonpayable",
            "type": "function"
        },
        {
            "constant": false,
            "inputs": [
                {
                    "name": "tokenAdr",
                    "type": "address"
                },
                {
                    "name": "carAdr",
                    "type": "address"
                },
                {
                    "name": "factory",
                    "type": "address"
                }
            ],
            "name": "initialize",
            "outputs": [],
            "payable": false,
            "stateMutability": "nonpayable",
            "type": "function"
        },
        {
            "constant": false,
            "inputs": [
                {
                    "name": "_sender",
                    "type": "address"
                }
            ],
            "name": "initialize",
            "outputs": [],
            "payable": false,
            "stateMutability": "nonpayable",
            "type": "function"
        },
        {
            "constant": false,
            "inputs": [],
            "name": "_preorderFill",
            "outputs": [],
            "payable": false,
            "stateMutability": "nonpayable",
            "type": "function"
        },
        {
            "constant": false,
            "inputs": [
                {
                    "name": "newToken",
                    "type": "address"
                }
            ],
            "name": "migrate",
            "outputs": [],
            "payable": false,
            "stateMutability": "nonpayable",
            "type": "function"
        },
        {
            "constant": false,
            "inputs": [
                {
                    "name": "_gameBalance",
                    "type": "address"
                }
            ],
            "name": "setGameBalance",
            "outputs": [],
            "payable": false,
            "stateMutability": "nonpayable",
            "type": "function"
        },
        {
            "constant": false,
            "inputs": [
                {
                    "name": "amount",
                    "type": "uint256"
                }
            ],
            "name": "setLimitAndStart",
            "outputs": [],
            "payable": false,
            "stateMutability": "nonpayable",
            "type": "function"
        },
        {
            "constant": true,
            "inputs": [],
            "name": "dailyLimit",
            "outputs": [
                {
                    "name": "",
                    "type": "uint256"
                }
            ],
            "payable": false,
            "stateMutability": "view",
            "type": "function"
        },
        {
            "constant": false,
            "inputs": [
                {
                    "name": "player",
                    "type": "address"
                },
                {
                    "name": "amount",
                    "type": "uint256"
                }
            ],
            "name": "rewardPlayer",
            "outputs": [],
            "payable": false,
            "stateMutability": "nonpayable",
            "type": "function"
        }
    ],
    "bytecode": "0x608060405234801561001057600080fd5b5061252e806100206000396000f30060806040526004361061013e576000357c0100000000000000000000000000000000000000000000000000000000900463ffffffff168063144fa6d7146101435780631d9885d2146101865780632e6d770a1461019d578063313ce567146101c857806335f6ebc1146101f957806352be2e64146102465780635b7892371461027157806367eeba0c146102b657806378abafaf146102e1578063798fd1781461030c5780638129fc1c1461036357806389cbc4161461037a5780638da5cb5b146103a5578063a108b664146103fc578063b69ef8a814610453578063c0bac1a81461047e578063c0c53b8b14610545578063c4d66de8146105c8578063ce5494bb1461060b578063d530bf331461064e578063d726f4cf146106a5578063f2fde38b146106e8578063f82ca9f01461072b578063fc0c546a14610758575b600080fd5b34801561014f57600080fd5b50610184600480360381019080803573ffffffffffffffffffffffffffffffffffffffff1690602001909291905050506107af565b005b34801561019257600080fd5b5061019b610850565b005b3480156101a957600080fd5b506101b2610eb4565b6040518082815260200191505060405180910390f35b3480156101d457600080fd5b506101dd610eb9565b604051808260ff1660ff16815260200191505060405180910390f35b34801561020557600080fd5b50610244600480360381019080803573ffffffffffffffffffffffffffffffffffffffff16906020019092919080359060200190929190505050610ebe565b005b34801561025257600080fd5b5061025b610f4f565b6040518082815260200191505060405180910390f35b34801561027d57600080fd5b5061029c60048036038101908080359060200190929190505050610f55565b604051808215151515815260200191505060405180910390f35b3480156102c257600080fd5b506102cb610f75565b6040518082815260200191505060405180910390f35b3480156102ed57600080fd5b506102f6610fa5565b6040518082815260200191505060405180910390f35b34801561031857600080fd5b50610321610fab565b604051808273ffffffffffffffffffffffffffffffffffffffff1673ffffffffffffffffffffffffffffffffffffffff16815260200191505060405180910390f35b34801561036f57600080fd5b50610378610fb3565b005b34801561038657600080fd5b5061038f611384565b6040518082815260200191505060405180910390f35b3480156103b157600080fd5b506103ba61138a565b604051808273ffffffffffffffffffffffffffffffffffffffff1673ffffffffffffffffffffffffffffffffffffffff16815260200191505060405180910390f35b34801561040857600080fd5b506104116113b0565b604051808273ffffffffffffffffffffffffffffffffffffffff1673ffffffffffffffffffffffffffffffffffffffff16815260200191505060405180910390f35b34801561045f57600080fd5b506104686113d6565b6040518082815260200191505060405180910390f35b34801561048a57600080fd5b5061052b600480360381019080803590602001908201803590602001908080601f0160208091040260200160405190810160405280939291908181526020018383808284378201915050505050509192919290803590602001908201803590602001908080601f01602080910402602001604051908101604052809392919081815260200183838082843782019150505050505091929192905050506114d5565b604051808215151515815260200191505060405180910390f35b34801561055157600080fd5b506105c6600480360381019080803573ffffffffffffffffffffffffffffffffffffffff169060200190929190803573ffffffffffffffffffffffffffffffffffffffff169060200190929190803573ffffffffffffffffffffffffffffffffffffffff1690602001909291905050506115c0565b005b3480156105d457600080fd5b50610609600480360381019080803573ffffffffffffffffffffffffffffffffffffffff169060200190929190505050611a2a565b005b34801561061757600080fd5b5061064c600480360381019080803573ffffffffffffffffffffffffffffffffffffffff169060200190929190505050611e3d565b005b34801561065a57600080fd5b5061066361209e565b604051808273ffffffffffffffffffffffffffffffffffffffff1673ffffffffffffffffffffffffffffffffffffffff16815260200191505060405180910390f35b3480156106b157600080fd5b506106e6600480360381019080803573ffffffffffffffffffffffffffffffffffffffff1690602001909291905050506120c4565b005b3480156106f457600080fd5b50610729600480360381019080803573ffffffffffffffffffffffffffffffffffffffff169060200190929190505050612164565b005b34801561073757600080fd5b50610756600480360381019080803590602001909291905050506122bc565b005b34801561076457600080fd5b5061076d612329565b604051808273ffffffffffffffffffffffffffffffffffffffff1673ffffffffffffffffffffffffffffffffffffffff16815260200191505060405180910390f35b600073ffffffffffffffffffffffffffffffffffffffff16600160009054906101000a900473ffffffffffffffffffffffffffffffffffffffff1673ffffffffffffffffffffffffffffffffffffffff1614151561080c57600080fd5b80600160006101000a81548173ffffffffffffffffffffffffffffffffffffffff021916908373ffffffffffffffffffffffffffffffffffffffff16021790555050565b6000806000806000806000806000600460009054906101000a900473ffffffffffffffffffffffffffffffffffffffff169850339750600560009054906101000a900473ffffffffffffffffffffffffffffffffffffffff1673ffffffffffffffffffffffffffffffffffffffff166370a08231896040518263ffffffff167c0100000000000000000000000000000000000000000000000000000000028152600401808273ffffffffffffffffffffffffffffffffffffffff1673ffffffffffffffffffffffffffffffffffffffff168152602001915050602060405180830381600087803b15801561094357600080fd5b505af1158015610957573d6000803e3d6000fd5b505050506040513d602081101561096d57600080fd5b810190808051906020019092919050505096506000955060009450600093505b86841015610e455760a0851015156109a457610e45565b600560009054906101000a900473ffffffffffffffffffffffffffffffffffffffff1673ffffffffffffffffffffffffffffffffffffffff16632f745c5989866040518363ffffffff167c0100000000000000000000000000000000000000000000000000000000028152600401808373ffffffffffffffffffffffffffffffffffffffff1673ffffffffffffffffffffffffffffffffffffffff16815260200182815260200192505050602060405180830381600087803b158015610a6957600080fd5b505af1158015610a7d573d6000803e3d6000fd5b505050506040513d6020811015610a9357600080fd5b81019080805190602001909291905050509250600560009054906101000a900473ffffffffffffffffffffffffffffffffffffffff1673ffffffffffffffffffffffffffffffffffffffff16635c9a7a8b846040518263ffffffff167c010000000000000000000000000000000000000000000000000000000002815260040180828152602001915050602060405180830381600087803b158015610b3757600080fd5b505af1158015610b4b573d6000803e3d6000fd5b505050506040513d6020811015610b6157600080fd5b810190808051906020019092919050505091506003600084815260200190815260200160002060009054906101000a900460ff1615610b9f57610e38565b600560009054906101000a900473ffffffffffffffffffffffffffffffffffffffff1673ffffffffffffffffffffffffffffffffffffffff1663029bca78836040518263ffffffff167c010000000000000000000000000000000000000000000000000000000002815260040180828152602001915050602060405180830381600087803b158015610c3057600080fd5b505af1158015610c44573d6000803e3d6000fd5b505050506040513d6020811015610c5a57600080fd5b81019080805190602001909291905050501515610d27578873ffffffffffffffffffffffffffffffffffffffff16632833018e846040518263ffffffff167c010000000000000000000000000000000000000000000000000000000002815260040180828152602001915050602060405180830381600087803b158015610ce057600080fd5b505af1158015610cf4573d6000803e3d6000fd5b505050506040513d6020811015610d0a57600080fd5b81019080805190602001909291905050501515610d2657610e38565b5b601260ff16600a0a600560009054906101000a900473ffffffffffffffffffffffffffffffffffffffff1673ffffffffffffffffffffffffffffffffffffffff1663d748c2e4856040518263ffffffff167c010000000000000000000000000000000000000000000000000000000002815260040180828152602001915050602060405180830381600087803b158015610dc057600080fd5b505af1158015610dd4573d6000803e3d6000fd5b505050506040513d6020811015610dea57600080fd5b8101908080519060200190929190505050029050808601955060016003600085815260200190815260200160002060006101000a81548160ff02191690831515021790555084806001019550505b838060010194505061098d565b6000861115610ea957610e58888761234f565b50828873ffffffffffffffffffffffffffffffffffffffff167fe5b754fb1abb7f01b499791d0b820ae3b6af3424ac1c59768edb53f4ec31a929836040518082815260200191505060405180910390a35b505050505050505050565b60a081565b601281565b600660009054906101000a900473ffffffffffffffffffffffffffffffffffffffff1673ffffffffffffffffffffffffffffffffffffffff163373ffffffffffffffffffffffffffffffffffffffff16141515610f1a57600080fd5b610f22610f75565b8111151515610f3057600080fd5b610f3a828261234f565b50806007600082825401925050819055505050565b60095481565b60036020528060005260406000206000915054906101000a900460ff1681565b60008060006008546001620151806009544203811515610f9157fe5b040102915060075482039050809250505090565b60085481565b600030905090565b6040805190810160405280600a81526020017f4d696772617461626c65000000000000000000000000000000000000000000008152506040805190810160405280600581526020017f312e322e3100000000000000000000000000000000000000000000000000000081525061105e826040805190810160405280600b81526020017f696e697469616c697a6564000000000000000000000000000000000000000000815250612459565b6110688282612459565b7fdd117a11c22118c9dee4b5a67ce578bc44529dce21ee0ccc439588fbb9fb4ea38282604051808060200180602001838103835285818151815260200191508051906020019080838360005b838110156110cf5780820151818401526020810190506110b4565b50505050905090810190601f1680156110fc5780820380516001836020036101000a031916815260200191505b50838103825284818151815260200191508051906020019080838360005b8381101561113557808201518184015260208101905061111a565b50505050905090810190601f1680156111625780820380516001836020036101000a031916815260200191505b5094505050505060405180910390a160016000836040518082805190602001908083835b6020831015156111ab5780518252602082019150602081019050602083039250611186565b6001836020036101000a0380198251168184511680821785525050505050509050019150509081526020016040518091039020826040518082805190602001908083835b60208310151561121457805182526020820191506020810190506020830392506111ef565b6001836020036101000a038019825116818451168082178552505050505050905001915050908152602001604051809103902060006101000a81548160ff02191690831515021790555060016000836040518082805190602001908083835b6020831015156112985780518252602082019150602081019050602083039250611273565b6001836020036101000a03801982511681845116808217855250505050505090500191505090815260200160405180910390206040805190810160405280600b81526020017f696e697469616c697a65640000000000000000000000000000000000000000008152506040518082805190602001908083835b6020831015156113365780518252602082019150602081019050602083039250611311565b6001836020036101000a038019825116818451168082178552505050505050905001915050908152602001604051809103902060006101000a81548160ff0219169083151502179055505050565b60075481565b600260009054906101000a900473ffffffffffffffffffffffffffffffffffffffff1681565b600660009054906101000a900473ffffffffffffffffffffffffffffffffffffffff1681565b6000600160009054906101000a900473ffffffffffffffffffffffffffffffffffffffff1673ffffffffffffffffffffffffffffffffffffffff166370a08231306040518263ffffffff167c0100000000000000000000000000000000000000000000000000000000028152600401808273ffffffffffffffffffffffffffffffffffffffff1673ffffffffffffffffffffffffffffffffffffffff168152602001915050602060405180830381600087803b15801561149557600080fd5b505af11580156114a9573d6000803e3d6000fd5b505050506040513d60208110156114bf57600080fd5b8101908080519060200190929190505050905090565b600080836040518082805190602001908083835b60208310151561150e57805182526020820191506020810190506020830392506114e9565b6001836020036101000a0380198251168184511680821785525050505050509050019150509081526020016040518091039020826040518082805190602001908083835b6020831015156115775780518252602082019150602081019050602083039250611552565b6001836020036101000a038019825116818451168082178552505050505050905001915050908152602001604051809103902060009054906101000a900460ff16905092915050565b6000806040805190810160405280600881526020017f47616d65506f6f6c0000000000000000000000000000000000000000000000008152506040805190810160405280600381526020017f302e31000000000000000000000000000000000000000000000000000000000081525061166e826040805190810160405280600b81526020017f696e697469616c697a6564000000000000000000000000000000000000000000815250612459565b6116788282612459565b869350611684846107af565b85925082600560006101000a81548173ffffffffffffffffffffffffffffffffffffffff021916908373ffffffffffffffffffffffffffffffffffffffff16021790555084600460006101000a81548173ffffffffffffffffffffffffffffffffffffffff021916908373ffffffffffffffffffffffffffffffffffffffff1602179055507fdd117a11c22118c9dee4b5a67ce578bc44529dce21ee0ccc439588fbb9fb4ea38282604051808060200180602001838103835285818151815260200191508051906020019080838360005b83811015611770578082015181840152602081019050611755565b50505050905090810190601f16801561179d5780820380516001836020036101000a031916815260200191505b50838103825284818151815260200191508051906020019080838360005b838110156117d65780820151818401526020810190506117bb565b50505050905090810190601f1680156118035780820380516001836020036101000a031916815260200191505b5094505050505060405180910390a160016000836040518082805190602001908083835b60208310151561184c5780518252602082019150602081019050602083039250611827565b6001836020036101000a0380198251168184511680821785525050505050509050019150509081526020016040518091039020826040518082805190602001908083835b6020831015156118b55780518252602082019150602081019050602083039250611890565b6001836020036101000a038019825116818451168082178552505050505050905001915050908152602001604051809103902060006101000a81548160ff02191690831515021790555060016000836040518082805190602001908083835b6020831015156119395780518252602082019150602081019050602083039250611914565b6001836020036101000a03801982511681845116808217855250505050505090500191505090815260200160405180910390206040805190810160405280600b81526020017f696e697469616c697a65640000000000000000000000000000000000000000008152506040518082805190602001908083835b6020831015156119d757805182526020820191506020810190506020830392506119b2565b6001836020036101000a038019825116818451168082178552505050505050905001915050908152602001604051809103902060006101000a81548160ff02191690831515021790555050505050505050565b6040805190810160405280600781526020017f4f776e61626c65000000000000000000000000000000000000000000000000008152506040805190810160405280600581526020017f312e392e30000000000000000000000000000000000000000000000000000000815250611ad5826040805190810160405280600b81526020017f696e697469616c697a6564000000000000000000000000000000000000000000815250612459565b611adf8282612459565b82600260006101000a81548173ffffffffffffffffffffffffffffffffffffffff021916908373ffffffffffffffffffffffffffffffffffffffff1602179055507fdd117a11c22118c9dee4b5a67ce578bc44529dce21ee0ccc439588fbb9fb4ea38282604051808060200180602001838103835285818151815260200191508051906020019080838360005b83811015611b87578082015181840152602081019050611b6c565b50505050905090810190601f168015611bb45780820380516001836020036101000a031916815260200191505b50838103825284818151815260200191508051906020019080838360005b83811015611bed578082015181840152602081019050611bd2565b50505050905090810190601f168015611c1a5780820380516001836020036101000a031916815260200191505b5094505050505060405180910390a160016000836040518082805190602001908083835b602083101515611c635780518252602082019150602081019050602083039250611c3e565b6001836020036101000a0380198251168184511680821785525050505050509050019150509081526020016040518091039020826040518082805190602001908083835b602083101515611ccc5780518252602082019150602081019050602083039250611ca7565b6001836020036101000a038019825116818451168082178552505050505050905001915050908152602001604051809103902060006101000a81548160ff02191690831515021790555060016000836040518082805190602001908083835b602083101515611d505780518252602082019150602081019050602083039250611d2b565b6001836020036101000a03801982511681845116808217855250505050505090500191505090815260200160405180910390206040805190810160405280600b81526020017f696e697469616c697a65640000000000000000000000000000000000000000008152506040518082805190602001908083835b602083101515611dee5780518252602082019150602081019050602083039250611dc9565b6001836020036101000a038019825116818451168082178552505050505050905001915050908152602001604051809103902060006101000a81548160ff021916908315150217905550505050565b6000600260009054906101000a900473ffffffffffffffffffffffffffffffffffffffff1673ffffffffffffffffffffffffffffffffffffffff163373ffffffffffffffffffffffffffffffffffffffff16141515611e9b57600080fd5b600160009054906101000a900473ffffffffffffffffffffffffffffffffffffffff1673ffffffffffffffffffffffffffffffffffffffff1663095ea7b383611ee26113d6565b6040518363ffffffff167c0100000000000000000000000000000000000000000000000000000000028152600401808373ffffffffffffffffffffffffffffffffffffffff1673ffffffffffffffffffffffffffffffffffffffff16815260200182815260200192505050602060405180830381600087803b158015611f6757600080fd5b505af1158015611f7b573d6000803e3d6000fd5b505050506040513d6020811015611f9157600080fd5b81019080805190602001909291905050505081905080600160006101000a81548173ffffffffffffffffffffffffffffffffffffffff021916908373ffffffffffffffffffffffffffffffffffffffff1602179055508073ffffffffffffffffffffffffffffffffffffffff16635a8cadb1306040518263ffffffff167c0100000000000000000000000000000000000000000000000000000000028152600401808273ffffffffffffffffffffffffffffffffffffffff1673ffffffffffffffffffffffffffffffffffffffff168152602001915050600060405180830381600087803b15801561208257600080fd5b505af1158015612096573d6000803e3d6000fd5b505050505050565b600560009054906101000a900473ffffffffffffffffffffffffffffffffffffffff1681565b600260009054906101000a900473ffffffffffffffffffffffffffffffffffffffff1673ffffffffffffffffffffffffffffffffffffffff163373ffffffffffffffffffffffffffffffffffffffff1614151561212057600080fd5b80600660006101000a81548173ffffffffffffffffffffffffffffffffffffffff021916908373ffffffffffffffffffffffffffffffffffffffff16021790555050565b600260009054906101000a900473ffffffffffffffffffffffffffffffffffffffff1673ffffffffffffffffffffffffffffffffffffffff163373ffffffffffffffffffffffffffffffffffffffff161415156121c057600080fd5b600073ffffffffffffffffffffffffffffffffffffffff168173ffffffffffffffffffffffffffffffffffffffff16141515156121fc57600080fd5b8073ffffffffffffffffffffffffffffffffffffffff16600260009054906101000a900473ffffffffffffffffffffffffffffffffffffffff1673ffffffffffffffffffffffffffffffffffffffff167f8be0079c531659141344cd1fd0a4f28419497f9722a3daafe3b4186f6b6457e060405160405180910390a380600260006101000a81548173ffffffffffffffffffffffffffffffffffffffff021916908373ffffffffffffffffffffffffffffffffffffffff16021790555050565b600260009054906101000a900473ffffffffffffffffffffffffffffffffffffffff1673ffffffffffffffffffffffffffffffffffffffff163373ffffffffffffffffffffffffffffffffffffffff1614151561231857600080fd5b806008819055504260098190555050565b600160009054906101000a900473ffffffffffffffffffffffffffffffffffffffff1681565b6000600160009054906101000a900473ffffffffffffffffffffffffffffffffffffffff1673ffffffffffffffffffffffffffffffffffffffff1663a9059cbb84846040518363ffffffff167c0100000000000000000000000000000000000000000000000000000000028152600401808373ffffffffffffffffffffffffffffffffffffffff1673ffffffffffffffffffffffffffffffffffffffff16815260200182815260200192505050602060405180830381600087803b15801561241657600080fd5b505af115801561242a573d6000803e3d6000fd5b505050506040513d602081101561244057600080fd5b8101908080519060200190929190505050905092915050565b61246382826114d5565b1515156124fe576040517f08c379a00000000000000000000000000000000000000000000000000000000081526004018080602001828103825260328152602001807f52657175657374656420746172676574206d6967726174696f6e20494420686181526020017f7320616c7265616479206265656e2072756e000000000000000000000000000081525060400191505060405180910390fd5b50505600a165627a7a723058201017efd90a9244da3833d975733b9521530d4307c7cd78c1bbcac45ffcec7a750029",
    "source": "pragma solidity ^0.4.24;\n\nimport \"./TokenUpdate.sol\";\nimport \"zos-lib/contracts/migrations/Migratable.sol\";\nimport \"openzeppelin-zos/contracts/ownership/Ownable.sol\";\nimport \"openzeppelin-solidity/contracts/token/ERC20/DetailedERC20.sol\";\nimport \"./TokenPool.sol\";\nimport \"./CarToken.sol\";\nimport \"./CarFactory.sol\";\n\ncontract GamePool is Migratable, TokenPool, Ownable {\n    \n    mapping (uint256 => bool) public BZNclaimed;\n    \n    address internal factoryAdr;\n    \n\n    CarToken public carToken;\n    \n    uint8 public constant decimals = 18;\n    uint256 public constant FILL_LIMIT = 160;\n    \n    event Redeem(address indexed user, uint256 indexed _tokenId, uint256 amount);\n    \n    address public gameBalance;\n    uint256 public tokensRedeemed;\n    uint256 public limitAmount;\n    uint256 public limitStart;\n    \n    function initialize(address tokenAdr,\n                        address carAdr,\n                        address factory)\n                        isInitializer(\"GamePool\", \"0.1\") public {\n        ERC20Basic token = ERC20Basic(tokenAdr);\n        super.setToken(token);\n        \n        CarToken erc721Token = CarToken(carAdr);\n        carToken = erc721Token;\n        \n        factoryAdr = factory;\n    }\n    \n    function _preorderFill() public {\n        CarFactory factory = CarFactory(factoryAdr);\n        \n        address user = msg.sender;\n        uint256 carCount = carToken.balanceOf(user);\n        \n        uint256 total = 0;\n        uint256 fillCount = 0;\n        \n        for (uint256 i = 0; i < carCount; i++) {\n            \n            if (fillCount >= FILL_LIMIT) break;\n            \n            uint256 currentCar = carToken.tokenOfOwnerByIndex(user, i);\n            uint cType = carToken.getCarType(currentCar);\n            \n            if (BZNclaimed[currentCar]) continue;\n            \n            if (!carToken.isPremium(cType)) {\n                if (!factory.giveawayCar(currentCar)) continue;\n            }\n            \n            uint256 amount = carToken.tankSizes(currentCar) * (10 ** uint256(decimals));\n            \n            total = total + amount;\n            BZNclaimed[currentCar] = true;\n            fillCount++;\n        }\n        \n        if (total > 0) {\n            transferTo(user, total);\n            \n            emit Redeem(user, currentCar, amount);\n        }\n    }\n    \n    function migrate(address newToken) public onlyOwner {\n        //First approve all to transfer\n        DetailedERC20(token).approve(newToken, balance());\n        \n        TokenUpdate tokenUpdate = TokenUpdate(newToken);\n        \n        token = tokenUpdate;\n        \n        tokenUpdate.migrateAll(address(this));\n    }\n\n    function setGameBalance(address _gameBalance) public onlyOwner {\n        gameBalance = _gameBalance;\n    }\n    function setLimitAndStart(uint256 amount) public onlyOwner {\n        limitAmount = amount;\n        limitStart = block.timestamp;\n    }\n    function dailyLimit() public view returns (uint256) {\n        uint256 totalLimit = (((block.timestamp - limitStart) / 86400) + 1) * limitAmount;\n        uint256 limitLeft = totalLimit - tokensRedeemed;\n        return limitLeft;\n    }\n    function rewardPlayer(address player, uint256 amount) public {\n        require(msg.sender == gameBalance);\n        require(amount <= dailyLimit());\n        transferTo(player, amount);\n        tokensRedeemed += amount;\n    }\n}",
    "sourcePath": "/Users/wade/Documents/cipherGarden/contracts/Benzene/contracts/GamePool.sol",
    "compiler": {
        "name": "solc",
        "version": "0.4.26+commit.4563c3fc.Emscripten.clang"
    },
    "schemaVersion": "3.4.3",
    "updatedAt": "2021-10-29T19:33:07.698Z",
    "devdoc": {
        "methods": {
            "initialize()": {
                "details": "Initializer that marks the contract as initialized. It is important to run this if you had deployed a previous version of a Migratable contract. For more information see https://github.com/zeppelinos/zos-lib/issues/158."
            },
            "initialize(address)": {
                "details": "The Ownable constructor sets the original `owner` of the contract to the sender account."
            },
            "isMigrated(string,string)": {
                "details": "Returns true if the contract migration was applied.",
                "params": {
                    "contractName": "Name of the contract.",
                    "migrationId": "Identifier of the migration."
                },
                "return": "true if the contract migration was applied, false otherwise."
            },
            "transferOwnership(address)": {
                "details": "Allows the current owner to transfer control of the contract to a newOwner.",
                "params": {
                    "newOwner": "The address to transfer ownership to."
                }
            }
        }
    },
    "userdoc": {
        "methods": {}
    }
}